{
  "contractName": "collabNFT",
  "abi": [
    {
      "constant": true,
      "inputs": [
        {
          "name": "interfaceId",
          "type": "bytes4"
        }
      ],
      "name": "supportsInterface",
      "outputs": [
        {
          "name": "",
          "type": "bool"
        }
      ],
      "payable": false,
      "stateMutability": "view",
      "type": "function"
    },
    {
      "constant": true,
      "inputs": [
        {
          "name": "",
          "type": "uint256"
        }
      ],
      "name": "COLLABORATORS",
      "outputs": [
        {
          "name": "",
          "type": "address"
        }
      ],
      "payable": false,
      "stateMutability": "view",
      "type": "function"
    },
    {
      "constant": true,
      "inputs": [],
      "name": "name",
      "outputs": [
        {
          "name": "",
          "type": "string"
        }
      ],
      "payable": false,
      "stateMutability": "view",
      "type": "function"
    },
    {
      "constant": true,
      "inputs": [
        {
          "name": "tokenId",
          "type": "uint256"
        }
      ],
      "name": "getApproved",
      "outputs": [
        {
          "name": "",
          "type": "address"
        }
      ],
      "payable": false,
      "stateMutability": "view",
      "type": "function"
    },
    {
      "constant": false,
      "inputs": [
        {
          "name": "to",
          "type": "address"
        },
        {
          "name": "tokenId",
          "type": "uint256"
        }
      ],
      "name": "approve",
      "outputs": [],
      "payable": false,
      "stateMutability": "nonpayable",
      "type": "function"
    },
    {
      "constant": true,
      "inputs": [],
      "name": "totalSupply",
      "outputs": [
        {
          "name": "",
          "type": "uint256"
        }
      ],
      "payable": false,
      "stateMutability": "view",
      "type": "function"
    },
    {
      "constant": false,
      "inputs": [
        {
          "name": "from",
          "type": "address"
        },
        {
          "name": "to",
          "type": "address"
        },
        {
          "name": "tokenId",
          "type": "uint256"
        }
      ],
      "name": "transferFrom",
      "outputs": [],
      "payable": false,
      "stateMutability": "nonpayable",
      "type": "function"
    },
    {
      "constant": true,
      "inputs": [
        {
          "name": "owner",
          "type": "address"
        },
        {
          "name": "index",
          "type": "uint256"
        }
      ],
      "name": "tokenOfOwnerByIndex",
      "outputs": [
        {
          "name": "",
          "type": "uint256"
        }
      ],
      "payable": false,
      "stateMutability": "view",
      "type": "function"
    },
    {
      "constant": false,
      "inputs": [
        {
          "name": "from",
          "type": "address"
        },
        {
          "name": "to",
          "type": "address"
        },
        {
          "name": "tokenId",
          "type": "uint256"
        }
      ],
      "name": "safeTransferFrom",
      "outputs": [],
      "payable": false,
      "stateMutability": "nonpayable",
      "type": "function"
    },
    {
      "constant": true,
      "inputs": [],
      "name": "artist",
      "outputs": [
        {
          "name": "",
          "type": "address"
        }
      ],
      "payable": false,
      "stateMutability": "view",
      "type": "function"
    },
    {
      "constant": true,
      "inputs": [
        {
          "name": "index",
          "type": "uint256"
        }
      ],
      "name": "tokenByIndex",
      "outputs": [
        {
          "name": "",
          "type": "uint256"
        }
      ],
      "payable": false,
      "stateMutability": "view",
      "type": "function"
    },
    {
      "constant": true,
      "inputs": [
        {
          "name": "tokenId",
          "type": "uint256"
        }
      ],
      "name": "ownerOf",
      "outputs": [
        {
          "name": "",
          "type": "address"
        }
      ],
      "payable": false,
      "stateMutability": "view",
      "type": "function"
    },
    {
      "constant": true,
      "inputs": [
        {
          "name": "",
          "type": "uint256"
        }
      ],
      "name": "ipfshash",
      "outputs": [
        {
          "name": "",
          "type": "string"
        }
      ],
      "payable": false,
      "stateMutability": "view",
      "type": "function"
    },
    {
      "constant": true,
      "inputs": [
        {
          "name": "owner",
          "type": "address"
        }
      ],
      "name": "balanceOf",
      "outputs": [
        {
          "name": "",
          "type": "uint256"
        }
      ],
      "payable": false,
      "stateMutability": "view",
      "type": "function"
    },
    {
      "constant": true,
      "inputs": [],
      "name": "totalNumberOfCollaboratorsPresent",
      "outputs": [
        {
          "name": "",
          "type": "uint256"
        }
      ],
      "payable": false,
      "stateMutability": "view",
      "type": "function"
    },
    {
      "constant": true,
      "inputs": [],
      "name": "symbol",
      "outputs": [
        {
          "name": "",
          "type": "string"
        }
      ],
      "payable": false,
      "stateMutability": "view",
      "type": "function"
    },
    {
      "constant": false,
      "inputs": [
        {
          "name": "to",
          "type": "address"
        },
        {
          "name": "approved",
          "type": "bool"
        }
      ],
      "name": "setApprovalForAll",
      "outputs": [],
      "payable": false,
      "stateMutability": "nonpayable",
      "type": "function"
    },
    {
      "constant": false,
      "inputs": [
        {
          "name": "from",
          "type": "address"
        },
        {
          "name": "to",
          "type": "address"
        },
        {
          "name": "tokenId",
          "type": "uint256"
        },
        {
          "name": "_data",
          "type": "bytes"
        }
      ],
      "name": "safeTransferFrom",
      "outputs": [],
      "payable": false,
      "stateMutability": "nonpayable",
      "type": "function"
    },
    {
      "constant": true,
      "inputs": [
        {
          "name": "tokenId",
          "type": "uint256"
        }
      ],
      "name": "tokenURI",
      "outputs": [
        {
          "name": "",
          "type": "string"
        }
      ],
      "payable": false,
      "stateMutability": "view",
      "type": "function"
    },
    {
      "constant": true,
      "inputs": [
        {
          "name": "",
          "type": "uint256"
        }
      ],
      "name": "ART",
      "outputs": [
        {
          "name": "",
          "type": "string"
        }
      ],
      "payable": false,
      "stateMutability": "view",
      "type": "function"
    },
    {
      "constant": true,
      "inputs": [],
      "name": "totalNumberOfArtPresent",
      "outputs": [
        {
          "name": "",
          "type": "uint256"
        }
      ],
      "payable": false,
      "stateMutability": "view",
      "type": "function"
    },
    {
      "constant": true,
      "inputs": [
        {
          "name": "owner",
          "type": "address"
        },
        {
          "name": "operator",
          "type": "address"
        }
      ],
      "name": "isApprovedForAll",
      "outputs": [
        {
          "name": "",
          "type": "bool"
        }
      ],
      "payable": false,
      "stateMutability": "view",
      "type": "function"
    },
    {
      "constant": true,
      "inputs": [],
      "name": "priceInEth",
      "outputs": [
        {
          "name": "",
          "type": "uint256"
        }
      ],
      "payable": false,
      "stateMutability": "view",
      "type": "function"
    },
    {
      "inputs": [
        {
          "name": "_name",
          "type": "string"
        },
        {
          "name": "_symbol",
          "type": "string"
        },
        {
          "name": "_artist",
          "type": "address"
        },
        {
          "name": "_priceInETH",
          "type": "uint256"
        }
      ],
      "payable": false,
      "stateMutability": "nonpayable",
      "type": "constructor"
    },
    {
      "anonymous": false,
      "inputs": [
        {
          "indexed": true,
          "name": "from",
          "type": "address"
        },
        {
          "indexed": true,
          "name": "to",
          "type": "address"
        },
        {
          "indexed": true,
          "name": "tokenId",
          "type": "uint256"
        }
      ],
      "name": "Transfer",
      "type": "event"
    },
    {
      "anonymous": false,
      "inputs": [
        {
          "indexed": true,
          "name": "owner",
          "type": "address"
        },
        {
          "indexed": true,
          "name": "approved",
          "type": "address"
        },
        {
          "indexed": true,
          "name": "tokenId",
          "type": "uint256"
        }
      ],
      "name": "Approval",
      "type": "event"
    },
    {
      "anonymous": false,
      "inputs": [
        {
          "indexed": true,
          "name": "owner",
          "type": "address"
        },
        {
          "indexed": true,
          "name": "operator",
          "type": "address"
        },
        {
          "indexed": false,
          "name": "approved",
          "type": "bool"
        }
      ],
      "name": "ApprovalForAll",
      "type": "event"
    },
    {
      "constant": false,
      "inputs": [
        {
          "name": "_ArtID",
          "type": "uint256"
        },
        {
          "name": "_uri",
          "type": "string"
        },
        {
          "name": "_tokenpriceInEth",
          "type": "uint256"
        }
      ],
      "name": "ReceiveEthAndMint",
      "outputs": [],
      "payable": true,
      "stateMutability": "payable",
      "type": "function"
    },
    {
      "constant": false,
      "inputs": [
        {
          "name": "_ArtAlias",
          "type": "string"
        },
        {
          "name": "ipfshashnumber",
          "type": "string"
        }
      ],
      "name": "addART",
      "outputs": [],
      "payable": false,
      "stateMutability": "nonpayable",
      "type": "function"
    },
    {
      "constant": true,
      "inputs": [
        {
          "name": "__id",
          "type": "uint256"
        }
      ],
      "name": "getArtAliasByID",
      "outputs": [
        {
          "name": "",
          "type": "string"
        }
      ],
      "payable": false,
      "stateMutability": "view",
      "type": "function"
    },
    {
      "constant": true,
      "inputs": [
        {
          "name": "__id",
          "type": "uint256"
        }
      ],
      "name": "getCollaboratorByID",
      "outputs": [
        {
          "name": "",
          "type": "address"
        }
      ],
      "payable": false,
      "stateMutability": "view",
      "type": "function"
    },
    {
      "constant": false,
      "inputs": [
        {
          "name": "_ArtPrice",
          "type": "uint256"
        }
      ],
      "name": "ChangeArtPrice",
      "outputs": [],
      "payable": false,
      "stateMutability": "nonpayable",
      "type": "function"
    },
    {
      "constant": false,
      "inputs": [
        {
          "name": "collaborating_Artist",
          "type": "address"
        },
        {
          "name": "percentageReward",
          "type": "uint256"
        }
      ],
      "name": "AddCollaboratorsAndTheirRewardPercentage",
      "outputs": [],
      "payable": false,
      "stateMutability": "nonpayable",
      "type": "function"
    },
    {
      "constant": false,
      "inputs": [
        {
          "name": "collaborating_Artist",
          "type": "address"
        },
        {
          "name": "percentageReward",
          "type": "uint256"
        }
      ],
      "name": "updatePercentageRewardForCollaborators",
      "outputs": [],
      "payable": false,
      "stateMutability": "nonpayable",
      "type": "function"
    }
  ],
  "bytecode": "0x60806040523480156200001157600080fd5b50604051620046d2380380620046d2833981018060405260808110156200003757600080fd5b8101908080516401000000008111156200005057600080fd5b828101905060208101848111156200006757600080fd5b81518560018202830111640100000000821117156200008557600080fd5b50509291906020018051640100000000811115620000a257600080fd5b82810190506020810184811115620000b957600080fd5b8151856001820283011164010000000082111715620000d757600080fd5b5050929190602001805190602001909291908051906020019092919050505083838181620001376301ffc9a77c010000000000000000000000000000000000000000000000000000000002620002a8640100000000026401000000009004565b620001746380ac58cd7c010000000000000000000000000000000000000000000000000000000002620002a8640100000000026401000000009004565b620001b163780e9d637c010000000000000000000000000000000000000000000000000000000002620002a8640100000000026401000000009004565b8160099080519060200190620001c9929190620003cf565b5080600a9080519060200190620001e2929190620003cf565b5062000220635b5e139f7c010000000000000000000000000000000000000000000000000000000002620002a8640100000000026401000000009004565b5050505083600c90805190602001906200023c929190620003cf565b5082600d908051906020019062000255929190620003cf565b5081600e60006101000a81548173ffffffffffffffffffffffffffffffffffffffff021916908373ffffffffffffffffffffffffffffffffffffffff16021790555080600f81905550505050506200047e565b63ffffffff7c010000000000000000000000000000000000000000000000000000000002817bffffffffffffffffffffffffffffffffffffffffffffffffffffffff19161415151562000363576040517f08c379a000000000000000000000000000000000000000000000000000000000815260040180806020018281038252601c8152602001807f4552433136353a20696e76616c696420696e746572666163652069640000000081525060200191505060405180910390fd5b6001600080837bffffffffffffffffffffffffffffffffffffffffffffffffffffffff19167bffffffffffffffffffffffffffffffffffffffffffffffffffffffff1916815260200190815260200160002060006101000a81548160ff02191690831515021790555050565b828054600181600116156101000203166002900490600052602060002090601f016020900481019282601f106200041257805160ff191683800117855562000443565b8280016001018555821562000443579182015b828111156200044257825182559160200191906001019062000425565b5b50905062000452919062000456565b5090565b6200047b91905b80821115620004775760008160009055506001016200045d565b5090565b90565b614244806200048e6000396000f3fe608060405260043610610180576000357c0100000000000000000000000000000000000000000000000000000000900463ffffffff16806301ffc9a71461018557806304659ea1146101f757806306fdde0314610272578063081812fc14610302578063095ea7b31461037d57806318160ddd146103d85780631c05af88146104035780632380b5c1146104d257806323b872dd146105865780632f745c591461060157806342842e0e1461067057806343bc1612146106eb57806344accba7146107425780634f6ccce7146108a15780636352211e146108f05780636b057aad1461096b57806370a0823114610a1f57806374afe97314610a845780637cf1bc3814610adf57806395d89b4114610b0a578063a22cb46514610b9a578063b88d4fde14610bf7578063c7363a0614610d09578063c87b56dd14610d64578063d46cc25914610e18578063da0f1d1e14610ecc578063dbb7b8ff14610ef7578063e05c6a1a14610f72578063e985e9c514610fad578063fdd760ea14611036575b600080fd5b34801561019157600080fd5b506101dd600480360360208110156101a857600080fd5b8101908080357bffffffffffffffffffffffffffffffffffffffffffffffffffffffff19169060200190929190505050611061565b604051808215151515815260200191505060405180910390f35b34801561020357600080fd5b506102306004803603602081101561021a57600080fd5b81019080803590602001909291905050506110c8565b604051808273ffffffffffffffffffffffffffffffffffffffff1673ffffffffffffffffffffffffffffffffffffffff16815260200191505060405180910390f35b34801561027e57600080fd5b50610287611106565b6040518080602001828103825283818151815260200191508051906020019080838360005b838110156102c75780820151818401526020810190506102ac565b50505050905090810190601f1680156102f45780820380516001836020036101000a031916815260200191505b509250505060405180910390f35b34801561030e57600080fd5b5061033b6004803603602081101561032557600080fd5b81019080803590602001909291905050506111a4565b604051808273ffffffffffffffffffffffffffffffffffffffff1673ffffffffffffffffffffffffffffffffffffffff16815260200191505060405180910390f35b34801561038957600080fd5b506103d6600480360360408110156103a057600080fd5b81019080803573ffffffffffffffffffffffffffffffffffffffff16906020019092919080359060200190929190505050611284565b005b3480156103e457600080fd5b506103ed6114e7565b6040518082815260200191505060405180910390f35b6104d06004803603606081101561041957600080fd5b81019080803590602001909291908035906020019064010000000081111561044057600080fd5b82018360208201111561045257600080fd5b8035906020019184600183028401116401000000008311171561047457600080fd5b91908080601f016020809104026020016040519081016040528093929190818152602001838380828437600081840152601f19601f820116905080830192505050505050509192919290803590602001909291905050506114f4565b005b3480156104de57600080fd5b5061050b600480360360208110156104f557600080fd5b8101908080359060200190929190505050611b3d565b6040518080602001828103825283818151815260200191508051906020019080838360005b8381101561054b578082015181840152602081019050610530565b50505050905090810190601f1680156105785780820380516001836020036101000a031916815260200191505b509250505060405180910390f35b34801561059257600080fd5b506105ff600480360360608110156105a957600080fd5b81019080803573ffffffffffffffffffffffffffffffffffffffff169060200190929190803573ffffffffffffffffffffffffffffffffffffffff16906020019092919080359060200190929190505050611c17565b005b34801561060d57600080fd5b5061065a6004803603604081101561062457600080fd5b81019080803573ffffffffffffffffffffffffffffffffffffffff16906020019092919080359060200190929190505050611ccb565b6040518082815260200191505060405180910390f35b34801561067c57600080fd5b506106e96004803603606081101561069357600080fd5b81019080803573ffffffffffffffffffffffffffffffffffffffff169060200190929190803573ffffffffffffffffffffffffffffffffffffffff16906020019092919080359060200190929190505050611dd1565b005b3480156106f757600080fd5b50610700611df2565b604051808273ffffffffffffffffffffffffffffffffffffffff1673ffffffffffffffffffffffffffffffffffffffff16815260200191505060405180910390f35b34801561074e57600080fd5b5061089f6004803603604081101561076557600080fd5b810190808035906020019064010000000081111561078257600080fd5b82018360208201111561079457600080fd5b803590602001918460018302840111640100000000831117156107b657600080fd5b91908080601f016020809104026020016040519081016040528093929190818152602001838380828437600081840152601f19601f8201169050808301925050505050505091929192908035906020019064010000000081111561081957600080fd5b82018360208201111561082b57600080fd5b8035906020019184600183028401116401000000008311171561084d57600080fd5b91908080601f016020809104026020016040519081016040528093929190818152602001838380828437600081840152601f19601f820116905080830192505050505050509192919290505050611e18565b005b3480156108ad57600080fd5b506108da600480360360208110156108c457600080fd5b81019080803590602001909291905050506122bf565b6040518082815260200191505060405180910390f35b3480156108fc57600080fd5b506109296004803603602081101561091357600080fd5b8101908080359060200190929190505050612386565b604051808273ffffffffffffffffffffffffffffffffffffffff1673ffffffffffffffffffffffffffffffffffffffff16815260200191505060405180910390f35b34801561097757600080fd5b506109a46004803603602081101561098e57600080fd5b8101908080359060200190929190505050612493565b6040518080602001828103825283818151815260200191508051906020019080838360005b838110156109e45780820151818401526020810190506109c9565b50505050905090810190601f168015610a115780820380516001836020036101000a031916815260200191505b509250505060405180910390f35b348015610a2b57600080fd5b50610a6e60048036036020811015610a4257600080fd5b81019080803573ffffffffffffffffffffffffffffffffffffffff16906020019092919050505061254e565b6040518082815260200191505060405180910390f35b348015610a9057600080fd5b50610add60048036036040811015610aa757600080fd5b81019080803573ffffffffffffffffffffffffffffffffffffffff16906020019092919080359060200190929190505050612668565b005b348015610aeb57600080fd5b50610af461279b565b6040518082815260200191505060405180910390f35b348015610b1657600080fd5b50610b1f6127a1565b6040518080602001828103825283818151815260200191508051906020019080838360005b83811015610b5f578082015181840152602081019050610b44565b50505050905090810190601f168015610b8c5780820380516001836020036101000a031916815260200191505b509250505060405180910390f35b348015610ba657600080fd5b50610bf560048036036040811015610bbd57600080fd5b81019080803573ffffffffffffffffffffffffffffffffffffffff16906020019092919080351515906020019092919050505061283f565b005b348015610c0357600080fd5b50610d0760048036036080811015610c1a57600080fd5b81019080803573ffffffffffffffffffffffffffffffffffffffff169060200190929190803573ffffffffffffffffffffffffffffffffffffffff1690602001909291908035906020019092919080359060200190640100000000811115610c8157600080fd5b820183602082011115610c9357600080fd5b80359060200191846001830284011164010000000083111715610cb557600080fd5b91908080601f016020809104026020016040519081016040528093929190818152602001838380828437600081840152601f19601f8201169050808301925050505050505091929192905050506129e4565b005b348015610d1557600080fd5b50610d6260048036036040811015610d2c57600080fd5b81019080803573ffffffffffffffffffffffffffffffffffffffff16906020019092919080359060200190929190505050612a9b565b005b348015610d7057600080fd5b50610d9d60048036036020811015610d8757600080fd5b8101908080359060200190929190505050612d9f565b6040518080602001828103825283818151815260200191508051906020019080838360005b83811015610ddd578082015181840152602081019050610dc2565b50505050905090810190601f168015610e0a5780820380516001836020036101000a031916815260200191505b509250505060405180910390f35b348015610e2457600080fd5b50610e5160048036036020811015610e3b57600080fd5b8101908080359060200190929190505050612ef7565b6040518080602001828103825283818151815260200191508051906020019080838360005b83811015610e91578082015181840152602081019050610e76565b50505050905090810190601f168015610ebe5780820380516001836020036101000a031916815260200191505b509250505060405180910390f35b348015610ed857600080fd5b50610ee1612fb2565b6040518082815260200191505060405180910390f35b348015610f0357600080fd5b50610f3060048036036020811015610f1a57600080fd5b8101908080359060200190929190505050612fb8565b604051808273ffffffffffffffffffffffffffffffffffffffff1673ffffffffffffffffffffffffffffffffffffffff16815260200191505060405180910390f35b348015610f7e57600080fd5b50610fab60048036036020811015610f9557600080fd5b8101908080359060200190929190505050613019565b005b348015610fb957600080fd5b5061101c60048036036040811015610fd057600080fd5b81019080803573ffffffffffffffffffffffffffffffffffffffff169060200190929190803573ffffffffffffffffffffffffffffffffffffffff16906020019092919050505061310e565b604051808215151515815260200191505060405180910390f35b34801561104257600080fd5b5061104b6131a2565b6040518082815260200191505060405180910390f35b6000806000837bffffffffffffffffffffffffffffffffffffffffffffffffffffffff19167bffffffffffffffffffffffffffffffffffffffffffffffffffffffff1916815260200190815260200160002060009054906101000a900460ff169050919050565b6015818154811015156110d757fe5b906000526020600020016000915054906101000a900473ffffffffffffffffffffffffffffffffffffffff1681565b600c8054600181600116156101000203166002900480601f01602080910402602001604051908101604052809291908181526020018280546001816001161561010002031660029004801561119c5780601f106111715761010080835404028352916020019161119c565b820191906000526020600020905b81548152906001019060200180831161117f57829003601f168201915b505050505081565b60006111af826131a8565b1515611249576040517f08c379a000000000000000000000000000000000000000000000000000000000815260040180806020018281038252602c8152602001807f4552433732313a20617070726f76656420717565727920666f72206e6f6e657881526020017f697374656e7420746f6b656e000000000000000000000000000000000000000081525060400191505060405180910390fd5b6002600083815260200190815260200160002060009054906101000a900473ffffffffffffffffffffffffffffffffffffffff169050919050565b600061128f82612386565b90508073ffffffffffffffffffffffffffffffffffffffff168373ffffffffffffffffffffffffffffffffffffffff161415151561135b576040517f08c379a00000000000000000000000000000000000000000000000000000000081526004018080602001828103825260218152602001807f4552433732313a20617070726f76616c20746f2063757272656e74206f776e6581526020017f720000000000000000000000000000000000000000000000000000000000000081525060400191505060405180910390fd5b8073ffffffffffffffffffffffffffffffffffffffff163373ffffffffffffffffffffffffffffffffffffffff16148061139b575061139a813361310e565b5b1515611435576040517f08c379a00000000000000000000000000000000000000000000000000000000081526004018080602001828103825260388152602001807f4552433732313a20617070726f76652063616c6c6572206973206e6f74206f7781526020017f6e6572206e6f7220617070726f76656420666f7220616c6c000000000000000081525060400191505060405180910390fd5b826002600084815260200190815260200160002060006101000a81548173ffffffffffffffffffffffffffffffffffffffff021916908373ffffffffffffffffffffffffffffffffffffffff160217905550818373ffffffffffffffffffffffffffffffffffffffff168273ffffffffffffffffffffffffffffffffffffffff167f8c5be1e5ebec7d5bd14f71427d1e84f3dd0314c0f7b2291e5b200ac8c7c3b92560405160405180910390a4505050565b6000600780549050905090565b60606016816040518082805190602001908083835b60208310151561152e5780518252602082019150602081019050602083039250611509565b6001836020036101000a038019825116818451168082178552505050505050905001915050908152602001604051809103902060009054906101000a900460ff1615151561160a576040517f08c379a000000000000000000000000000000000000000000000000000000000815260040180806020018281038252602f8152602001807f746869732061727420697320616c726561647920746f6b656e697a6564206f6e81526020017f2074686520626c6f636b636861696e000000000000000000000000000000000081525060400191505060405180910390fd5b6019836040518082805190602001908083835b602083101515611642578051825260208201915060208101905060208303925061161d565b6001836020036101000a038019825116818451168082178552505050505050905001915050908152602001604051809103902060009054906101000a900460ff1615151561171e576040517f08c379a00000000000000000000000000000000000000000000000000000000081526004018080602001828103825260298152602001807f746869732075726920616c726561647920657869737473206f6e20746865206281526020017f6c6f636b636861696e000000000000000000000000000000000000000000000081525060400191505060405180910390fd5b600f54821480156117305750600f5434145b15156117ca576040517f08c379a00000000000000000000000000000000000000000000000000000000081526004018080602001828103825260248152602001807f73656e74206574686572206e6f7420657175616c20746f20746f6b656e20707281526020017f696365200000000000000000000000000000000000000000000000000000000081525060400191505060405180910390fd5b34601a60003073ffffffffffffffffffffffffffffffffffffffff1673ffffffffffffffffffffffffffffffffffffffff1681526020019081526020016000206000828254019250508190555060008090505b601254811015611940576000601254141561183757611940565b60008060008060158581548110151561184c57fe5b9060005260206000200160009054906101000a900473ffffffffffffffffffffffffffffffffffffffff169350601c60008573ffffffffffffffffffffffffffffffffffffffff1673ffffffffffffffffffffffffffffffffffffffff1681526020019081526020016000205492506118d0600f548461321a90919063ffffffff16565b90506118e66064826132e790919063ffffffff16565b91508373ffffffffffffffffffffffffffffffffffffffff166108fc839081150290604051600060405180830381858888f1935050505015801561192e573d6000803e3d6000fd5b5050505050808060010191505061181d565b50600e60009054906101000a900473ffffffffffffffffffffffffffffffffffffffff1673ffffffffffffffffffffffffffffffffffffffff166108fc3073ffffffffffffffffffffffffffffffffffffffff16319081150290604051600060405180830381858888f193505050501580156119c0573d6000803e3d6000fd5b50600f54601a60003073ffffffffffffffffffffffffffffffffffffffff1673ffffffffffffffffffffffffffffffffffffffff16815260200190815260200160002060008282540392505081905550611a1984611b3d565b905060016016826040518082805190602001908083835b602083101515611a555780518252602082019150602081019050602083039250611a30565b6001836020036101000a038019825116818451168082178552505050505050905001915050908152602001604051809103902060006101000a81548160ff021916908315150217905550611aa9338561337a565b60016019846040518082805190602001908083835b602083101515611ae35780518252602082019150602081019050602083039250611abe565b6001836020036101000a038019825116818451168082178552505050505050905001915050908152602001604051809103902060006101000a81548160ff021916908315150217905550611b37848461339b565b50505050565b606060006060611b5760018561346a90919063ffffffff16565b9150601382815481101515611b6857fe5b906000526020600020018054600181600116156101000203166002900480601f016020809104026020016040519081016040528092919081815260200182805460018160011615610100020316600290048015611c065780601f10611bdb57610100808354040283529160200191611c06565b820191906000526020600020905b815481529060010190602001808311611be957829003601f168201915b505050505090508092505050919050565b611c2133826134f5565b1515611cbb576040517f08c379a00000000000000000000000000000000000000000000000000000000081526004018080602001828103825260318152602001807f4552433732313a207472616e736665722063616c6c6572206973206e6f74206f81526020017f776e6572206e6f7220617070726f76656400000000000000000000000000000081525060400191505060405180910390fd5b611cc683838361362e565b505050565b6000611cd68361254e565b82101515611d72576040517f08c379a000000000000000000000000000000000000000000000000000000000815260040180806020018281038252602b8152602001807f455243373231456e756d657261626c653a206f776e657220696e646578206f7581526020017f74206f6620626f756e647300000000000000000000000000000000000000000081525060400191505060405180910390fd5b600560008473ffffffffffffffffffffffffffffffffffffffff1673ffffffffffffffffffffffffffffffffffffffff16815260200190815260200160002082815481101515611dbe57fe5b9060005260206000200154905092915050565b611ded83838360206040519081016040528060008152506129e4565b505050565b600e60009054906101000a900473ffffffffffffffffffffffffffffffffffffffff1681565b600e60009054906101000a900473ffffffffffffffffffffffffffffffffffffffff1673ffffffffffffffffffffffffffffffffffffffff163373ffffffffffffffffffffffffffffffffffffffff16141515611f03576040517f08c379a00000000000000000000000000000000000000000000000000000000081526004018080602001828103825260378152602001807f206f6e6c7920746865204e4654206172746973742063616e206164642061727481526020017f776f726b206e616d657320746f2074686973206c69737400000000000000000081525060400191505060405180910390fd5b6017826040518082805190602001908083835b602083101515611f3b5780518252602082019150602081019050602083039250611f16565b6001836020036101000a038019825116818451168082178552505050505050905001915050908152602001604051809103902060009054906101000a900460ff16151515612017576040517f08c379a000000000000000000000000000000000000000000000000000000000815260040180806020018281038252603d8152602001807f746869732061727420686173206265656e206164646564207769746820616e2081526020017f617274206e616d6520696e746f2074686973206172726179206c69737400000081525060400191505060405180910390fd5b6018816040518082805190602001908083835b60208310151561204f578051825260208201915060208101905060208303925061202a565b6001836020036101000a038019825116818451168082178552505050505050905001915050908152602001604051809103902060009054906101000a900460ff1615151561212b576040517f08c379a000000000000000000000000000000000000000000000000000000000815260040180806020018281038252603d8152602001807f746869732061727420686173206265656e206164646564207769746820616e2081526020017f617274206e616d6520696e746f2074686973206172726179206c69737400000081525060400191505060405180910390fd5b6013829080600181540180825580915050906001820390600052602060002001600090919290919091509080519060200190612168929190614147565b5060108190555060016017836040518082805190602001908083835b6020831015156121a95780518252602082019150602081019050602083039250612184565b6001836020036101000a038019825116818451168082178552505050505050905001915050908152602001604051809103902060006101000a81548160ff0219169083151502179055506014819080600181540180825580915050906001820390600052602060002001600090919290919091509080519060200190612230929190614147565b5060118190555060016018826040518082805190602001908083835b602083101515612271578051825260208201915060208101905060208303925061224c565b6001836020036101000a038019825116818451168082178552505050505050905001915050908152602001604051809103902060006101000a81548160ff0219169083151502179055505050565b60006122c96114e7565b82101515612365576040517f08c379a000000000000000000000000000000000000000000000000000000000815260040180806020018281038252602c8152602001807f455243373231456e756d657261626c653a20676c6f62616c20696e646578206f81526020017f7574206f6620626f756e6473000000000000000000000000000000000000000081525060400191505060405180910390fd5b60078281548110151561237457fe5b90600052602060002001549050919050565b6000806001600084815260200190815260200160002060009054906101000a900473ffffffffffffffffffffffffffffffffffffffff169050600073ffffffffffffffffffffffffffffffffffffffff168173ffffffffffffffffffffffffffffffffffffffff161415151561248a576040517f08c379a00000000000000000000000000000000000000000000000000000000081526004018080602001828103825260298152602001807f4552433732313a206f776e657220717565727920666f72206e6f6e657869737481526020017f656e7420746f6b656e000000000000000000000000000000000000000000000081525060400191505060405180910390fd5b80915050919050565b6014818154811015156124a257fe5b906000526020600020016000915090508054600181600116156101000203166002900480601f0160208091040260200160405190810160405280929190818152602001828054600181600116156101000203166002900480156125465780601f1061251b57610100808354040283529160200191612546565b820191906000526020600020905b81548152906001019060200180831161252957829003601f168201915b505050505081565b60008073ffffffffffffffffffffffffffffffffffffffff168273ffffffffffffffffffffffffffffffffffffffff161415151561261a576040517f08c379a000000000000000000000000000000000000000000000000000000000815260040180806020018281038252602a8152602001807f4552433732313a2062616c616e636520717565727920666f7220746865207a6581526020017f726f20616464726573730000000000000000000000000000000000000000000081525060400191505060405180910390fd5b612661600360008473ffffffffffffffffffffffffffffffffffffffff1673ffffffffffffffffffffffffffffffffffffffff168152602001908152602001600020613652565b9050919050565b600e60009054906101000a900473ffffffffffffffffffffffffffffffffffffffff1673ffffffffffffffffffffffffffffffffffffffff163373ffffffffffffffffffffffffffffffffffffffff16141515612753576040517f08c379a00000000000000000000000000000000000000000000000000000000081526004018080602001828103825260298152602001807f206f6e6c7920746865204e4654206172746973742063616e2061646420746f2081526020017f74686973206c697374000000000000000000000000000000000000000000000081525060400191505060405180910390fd5b80601c60008473ffffffffffffffffffffffffffffffffffffffff1673ffffffffffffffffffffffffffffffffffffffff168152602001908152602001600020819055505050565b60125481565b600d8054600181600116156101000203166002900480601f0160208091040260200160405190810160405280929190818152602001828054600181600116156101000203166002900480156128375780601f1061280c57610100808354040283529160200191612837565b820191906000526020600020905b81548152906001019060200180831161281a57829003601f168201915b505050505081565b3373ffffffffffffffffffffffffffffffffffffffff168273ffffffffffffffffffffffffffffffffffffffff16141515156128e3576040517f08c379a00000000000000000000000000000000000000000000000000000000081526004018080602001828103825260198152602001807f4552433732313a20617070726f766520746f2063616c6c65720000000000000081525060200191505060405180910390fd5b80600460003373ffffffffffffffffffffffffffffffffffffffff1673ffffffffffffffffffffffffffffffffffffffff16815260200190815260200160002060008473ffffffffffffffffffffffffffffffffffffffff1673ffffffffffffffffffffffffffffffffffffffff16815260200190815260200160002060006101000a81548160ff0219169083151502179055508173ffffffffffffffffffffffffffffffffffffffff163373ffffffffffffffffffffffffffffffffffffffff167f17307eab39ab6107e8899845ad3d59bd9653f200f220920489ca2b5937696c3183604051808215151515815260200191505060405180910390a35050565b6129ef848484611c17565b6129fb84848484613660565b1515612a95576040517f08c379a00000000000000000000000000000000000000000000000000000000081526004018080602001828103825260328152602001807f4552433732313a207472616e7366657220746f206e6f6e20455243373231526581526020017f63656976657220696d706c656d656e746572000000000000000000000000000081525060400191505060405180910390fd5b50505050565b600e60009054906101000a900473ffffffffffffffffffffffffffffffffffffffff1673ffffffffffffffffffffffffffffffffffffffff163373ffffffffffffffffffffffffffffffffffffffff16141515612b86576040517f08c379a00000000000000000000000000000000000000000000000000000000081526004018080602001828103825260298152602001807f206f6e6c7920746865204e4654206172746973742063616e2061646420746f2081526020017f74686973206c697374000000000000000000000000000000000000000000000081525060400191505060405180910390fd5b601b60008373ffffffffffffffffffffffffffffffffffffffff1673ffffffffffffffffffffffffffffffffffffffff16815260200190815260200160002060009054906101000a900460ff16151515612c94576040517f08c379a00000000000000000000000000000000000000000000000000000000081526004018080602001828103825260458152602001807f7468697320636f6c6c61626f7261746f7220686173206265656e20616464656481526020017f207769746820616e206164647265737320696e746f207468697320617272617981526020017f206c69737400000000000000000000000000000000000000000000000000000081525060600191505060405180910390fd5b6001601b60008473ffffffffffffffffffffffffffffffffffffffff1673ffffffffffffffffffffffffffffffffffffffff16815260200190815260200160002060006101000a81548160ff02191690831515021790555080601c60008473ffffffffffffffffffffffffffffffffffffffff1673ffffffffffffffffffffffffffffffffffffffff1681526020019081526020016000208190555060158290806001815401808255809150509060018203906000526020600020016000909192909190916101000a81548173ffffffffffffffffffffffffffffffffffffffff021916908373ffffffffffffffffffffffffffffffffffffffff1602179055506012819055505050565b6060612daa826131a8565b1515612e44576040517f08c379a000000000000000000000000000000000000000000000000000000000815260040180806020018281038252602f8152602001807f4552433732314d657461646174613a2055524920717565727920666f72206e6f81526020017f6e6578697374656e7420746f6b656e000000000000000000000000000000000081525060400191505060405180910390fd5b600b60008381526020019081526020016000208054600181600116156101000203166002900480601f016020809104026020016040519081016040528092919081815260200182805460018160011615610100020316600290048015612eeb5780601f10612ec057610100808354040283529160200191612eeb565b820191906000526020600020905b815481529060010190602001808311612ece57829003601f168201915b50505050509050919050565b601381815481101515612f0657fe5b906000526020600020016000915090508054600181600116156101000203166002900480601f016020809104026020016040519081016040528092919081815260200182805460018160011615610100020316600290048015612faa5780601f10612f7f57610100808354040283529160200191612faa565b820191906000526020600020905b815481529060010190602001808311612f8d57829003601f168201915b505050505081565b60105481565b6000806000612fd160018561346a90919063ffffffff16565b9150601582815481101515612fe257fe5b9060005260206000200160009054906101000a900473ffffffffffffffffffffffffffffffffffffffff1690508092505050919050565b600e60009054906101000a900473ffffffffffffffffffffffffffffffffffffffff1673ffffffffffffffffffffffffffffffffffffffff163373ffffffffffffffffffffffffffffffffffffffff16141515613104576040517f08c379a00000000000000000000000000000000000000000000000000000000081526004018080602001828103825260378152602001807f796f752063616e6e6f74206368616e676520746865206172742070726963652c81526020017f20796f7520617265206e6f74207468652061727469737400000000000000000081525060400191505060405180910390fd5b80600f8190555050565b6000600460008473ffffffffffffffffffffffffffffffffffffffff1673ffffffffffffffffffffffffffffffffffffffff16815260200190815260200160002060008373ffffffffffffffffffffffffffffffffffffffff1673ffffffffffffffffffffffffffffffffffffffff16815260200190815260200160002060009054906101000a900460ff16905092915050565b600f5481565b6000806001600084815260200190815260200160002060009054906101000a900473ffffffffffffffffffffffffffffffffffffffff169050600073ffffffffffffffffffffffffffffffffffffffff168173ffffffffffffffffffffffffffffffffffffffff161415915050919050565b60008083141561322d57600090506132e1565b6000828402905082848281151561324057fe5b041415156132dc576040517f08c379a00000000000000000000000000000000000000000000000000000000081526004018080602001828103825260218152602001807f536166654d6174683a206d756c7469706c69636174696f6e206f766572666c6f81526020017f770000000000000000000000000000000000000000000000000000000000000081525060400191505060405180910390fd5b809150505b92915050565b60008082111515613360576040517f08c379a000000000000000000000000000000000000000000000000000000000815260040180806020018281038252601a8152602001807f536166654d6174683a206469766973696f6e206279207a65726f00000000000081525060200191505060405180910390fd5b6000828481151561336d57fe5b0490508091505092915050565b6133848282613883565b61338e8282613a9f565b61339781613b66565b5050565b6133a4826131a8565b151561343e576040517f08c379a000000000000000000000000000000000000000000000000000000000815260040180806020018281038252602c8152602001807f4552433732314d657461646174613a2055524920736574206f66206e6f6e657881526020017f697374656e7420746f6b656e000000000000000000000000000000000000000081525060400191505060405180910390fd5b80600b60008481526020019081526020016000209080519060200190613465929190614147565b505050565b60008282111515156134e4576040517f08c379a000000000000000000000000000000000000000000000000000000000815260040180806020018281038252601e8152602001807f536166654d6174683a207375627472616374696f6e206f766572666c6f77000081525060200191505060405180910390fd5b600082840390508091505092915050565b6000613500826131a8565b151561359a576040517f08c379a000000000000000000000000000000000000000000000000000000000815260040180806020018281038252602c8152602001807f4552433732313a206f70657261746f7220717565727920666f72206e6f6e657881526020017f697374656e7420746f6b656e000000000000000000000000000000000000000081525060400191505060405180910390fd5b60006135a583612386565b90508073ffffffffffffffffffffffffffffffffffffffff168473ffffffffffffffffffffffffffffffffffffffff16148061361457508373ffffffffffffffffffffffffffffffffffffffff166135fc846111a4565b73ffffffffffffffffffffffffffffffffffffffff16145b806136255750613624818561310e565b5b91505092915050565b613639838383613bb2565b6136438382613e97565b61364d8282613a9f565b505050565b600081600001549050919050565b60006136818473ffffffffffffffffffffffffffffffffffffffff1661403b565b1515613690576001905061387b565b60008473ffffffffffffffffffffffffffffffffffffffff1663150b7a02338887876040518563ffffffff167c0100000000000000000000000000000000000000000000000000000000028152600401808573ffffffffffffffffffffffffffffffffffffffff1673ffffffffffffffffffffffffffffffffffffffff1681526020018473ffffffffffffffffffffffffffffffffffffffff1673ffffffffffffffffffffffffffffffffffffffff16815260200183815260200180602001828103825283818151815260200191508051906020019080838360005b8381101561378757808201518184015260208101905061376c565b50505050905090810190601f1680156137b45780820380516001836020036101000a031916815260200191505b5095505050505050602060405180830381600087803b1580156137d657600080fd5b505af11580156137ea573d6000803e3d6000fd5b505050506040513d602081101561380057600080fd5b8101908080519060200190929190505050905063150b7a027c0100000000000000000000000000000000000000000000000000000000027bffffffffffffffffffffffffffffffffffffffffffffffffffffffff1916817bffffffffffffffffffffffffffffffffffffffffffffffffffffffff1916149150505b949350505050565b600073ffffffffffffffffffffffffffffffffffffffff168273ffffffffffffffffffffffffffffffffffffffff1614151515613928576040517f08c379a00000000000000000000000000000000000000000000000000000000081526004018080602001828103825260208152602001807f4552433732313a206d696e7420746f20746865207a65726f206164647265737381525060200191505060405180910390fd5b613931816131a8565b1515156139a6576040517f08c379a000000000000000000000000000000000000000000000000000000000815260040180806020018281038252601c8152602001807f4552433732313a20746f6b656e20616c7265616479206d696e7465640000000081525060200191505060405180910390fd5b816001600083815260200190815260200160002060006101000a81548173ffffffffffffffffffffffffffffffffffffffff021916908373ffffffffffffffffffffffffffffffffffffffff160217905550613a3f600360008473ffffffffffffffffffffffffffffffffffffffff1673ffffffffffffffffffffffffffffffffffffffff16815260200190815260200160002061404e565b808273ffffffffffffffffffffffffffffffffffffffff16600073ffffffffffffffffffffffffffffffffffffffff167fddf252ad1be2c89b69c2b068fc378daa952ba7f163c4a11628f55a4df523b3ef60405160405180910390a45050565b600560008373ffffffffffffffffffffffffffffffffffffffff1673ffffffffffffffffffffffffffffffffffffffff168152602001908152602001600020805490506006600083815260200190815260200160002081905550600560008373ffffffffffffffffffffffffffffffffffffffff1673ffffffffffffffffffffffffffffffffffffffff1681526020019081526020016000208190806001815401808255809150509060018203906000526020600020016000909192909190915055505050565b6007805490506008600083815260200190815260200160002081905550600781908060018154018082558091505090600182039060005260206000200160009091929091909150555050565b8273ffffffffffffffffffffffffffffffffffffffff16613bd282612386565b73ffffffffffffffffffffffffffffffffffffffff16141515613c83576040517f08c379a00000000000000000000000000000000000000000000000000000000081526004018080602001828103825260298152602001807f4552433732313a207472616e73666572206f6620746f6b656e2074686174206981526020017f73206e6f74206f776e000000000000000000000000000000000000000000000081525060400191505060405180910390fd5b600073ffffffffffffffffffffffffffffffffffffffff168273ffffffffffffffffffffffffffffffffffffffff1614151515613d4e576040517f08c379a00000000000000000000000000000000000000000000000000000000081526004018080602001828103825260248152602001807f4552433732313a207472616e7366657220746f20746865207a65726f2061646481526020017f726573730000000000000000000000000000000000000000000000000000000081525060400191505060405180910390fd5b613d5781614064565b613d9e600360008573ffffffffffffffffffffffffffffffffffffffff1673ffffffffffffffffffffffffffffffffffffffff168152602001908152602001600020614124565b613de5600360008473ffffffffffffffffffffffffffffffffffffffff1673ffffffffffffffffffffffffffffffffffffffff16815260200190815260200160002061404e565b816001600083815260200190815260200160002060006101000a81548173ffffffffffffffffffffffffffffffffffffffff021916908373ffffffffffffffffffffffffffffffffffffffff160217905550808273ffffffffffffffffffffffffffffffffffffffff168473ffffffffffffffffffffffffffffffffffffffff167fddf252ad1be2c89b69c2b068fc378daa952ba7f163c4a11628f55a4df523b3ef60405160405180910390a4505050565b6000613eef6001600560008673ffffffffffffffffffffffffffffffffffffffff1673ffffffffffffffffffffffffffffffffffffffff1681526020019081526020016000208054905061346a90919063ffffffff16565b90506000600660008481526020019081526020016000205490508181141515613fe2576000600560008673ffffffffffffffffffffffffffffffffffffffff1673ffffffffffffffffffffffffffffffffffffffff16815260200190815260200160002083815481101515613f6057fe5b9060005260206000200154905080600560008773ffffffffffffffffffffffffffffffffffffffff1673ffffffffffffffffffffffffffffffffffffffff16815260200190815260200160002083815481101515613fba57fe5b9060005260206000200181905550816006600083815260200190815260200160002081905550505b600560008573ffffffffffffffffffffffffffffffffffffffff1673ffffffffffffffffffffffffffffffffffffffff16815260200190815260200160002080548091906001900361403491906141c7565b5050505050565b600080823b905060008111915050919050565b6001816000016000828254019250508190555050565b600073ffffffffffffffffffffffffffffffffffffffff166002600083815260200190815260200160002060009054906101000a900473ffffffffffffffffffffffffffffffffffffffff1673ffffffffffffffffffffffffffffffffffffffff161415156141215760006002600083815260200190815260200160002060006101000a81548173ffffffffffffffffffffffffffffffffffffffff021916908373ffffffffffffffffffffffffffffffffffffffff1602179055505b50565b61413c6001826000015461346a90919063ffffffff16565b816000018190555050565b828054600181600116156101000203166002900490600052602060002090601f016020900481019282601f1061418857805160ff19168380011785556141b6565b828001600101855582156141b6579182015b828111156141b557825182559160200191906001019061419a565b5b5090506141c391906141f3565b5090565b8154818355818111156141ee578183600052602060002091820191016141ed91906141f3565b5b505050565b61421591905b808211156142115760008160009055506001016141f9565b5090565b9056fea165627a7a723058201cf16a3628793331355b36f35057407bdb033504bcedf9e6a652f636acdb8b4e0029",
  "source": "pragma solidity 0.5.0;\r\n\r\nimport \"./ERC721Full.sol\";\r\n\r\n \r\n\r\n/* smart contract that mints ntf to addresses that interact with it  */\r\n\r\ncontract collabNFT is ERC721Full {\r\n    /* 'name' is the name of the token the contract issues */\r\n    string public name;\r\n\r\n    /* 'symbol' is the token symbol */\r\n    string public symbol;\r\n\r\n    /* 'artist' is the entity who is the  MAIN creator of the art the nft represents. Artist is identified by an eth address*/\r\n    address payable public artist;\r\n\r\n    /* 'priceInEth' is the price of the nft token set by the artist */\r\n    uint256 public priceInEth;\r\n\r\n    /** 'totalNumberOfArtPresent' gets the total number of art works present in the array list represnted in this smart contract */\r\n    uint256 public totalNumberOfArtPresent;\r\n\r\n       /** 'totalNumberOfFilesuploaded' gets the total number of art files/media uploaded to ipfs*/\r\n    uint256 totalNumberOfFilesUploaded;\r\n\r\n    /** totalNumberOfCollaboratorsPresent gets the total number of collaborators on this art collection */\r\n    uint256 public totalNumberOfCollaboratorsPresent;\r\n\r\n    /** 'ART' is an array (works like a list) which contains the names/aliases of all art represnted in this smart contract */\r\n    string[] public ART;\r\n\r\n    /** array comtaining all ipfs generated hashes for each upload */\r\n    string[] public ipfshash;\r\n\r\n    address payable[] public COLLABORATORS;\r\n\r\n    /** mappings to be upated when an art is minted, added, a URI exists and for smart contract balances  */\r\n    mapping(string => bool) _ArtMinted;\r\n    mapping(string => bool) _ArtAdded;\r\n    mapping(string => bool) ipfsAdded;\r\n    mapping(string => bool) _URI_Exists;\r\n    mapping(address => uint256) balances;\r\n    mapping(address => bool) collaboratorAdded;\r\n    mapping(address => uint256) collaboratorRewards;\r\n\r\n    /* Safemath library is used for uint to prevent integer overflow during mathematical calculations */\r\n    using SafeMath for uint;\r\n\r\n    /** 'contrustor contains arguments that must be provided before smart contract is deployed'*/\r\n    constructor(\r\n        string memory _name,\r\n        string memory _symbol,\r\n        address payable _artist,\r\n        uint256 _priceInETH\r\n    ) public ERC721Full(_name, _symbol) {\r\n        name = _name;\r\n        symbol = _symbol;\r\n        artist = _artist;\r\n        priceInEth = _priceInETH;\r\n    }\r\n\r\n    /** Receive eth and mint token function. function collects the art ID, which becomes the token ID, the token URI and token price in eth */\r\n\r\n    function ReceiveEthAndMint(\r\n        uint256 _ArtID,\r\n        string memory _uri,\r\n        uint256 _tokenpriceInEth\r\n    ) public payable {\r\n        string memory _ArtAlias;\r\n        require(\r\n            /** checks if art is already minted  */\r\n            !_ArtMinted[_ArtAlias],\r\n            \"this art is already tokenized on the blockchain\"\r\n        );\r\n        require(\r\n            /** checks if uri is already added to a token */\r\n            !_URI_Exists[_uri],\r\n            \"this uri already exists on the blockchain\"\r\n        );\r\n        require(\r\n            /** cjecks if token price, eth value sent in this transaction is the same as the priceInEth */\r\n            _tokenpriceInEth == priceInEth && msg.value == priceInEth,\r\n            \"sent ether not equal to token price \"\r\n        );\r\n\r\n        /** logs updated ether balance of contract */\r\n        balances[address(this)] += msg.value;\r\n\r\n        for (uint256 i = 0; i < totalNumberOfCollaboratorsPresent; i++) {\r\n            if (totalNumberOfCollaboratorsPresent == 0) {\r\n                break;\r\n            } else { \r\n                address payable collaborators;\r\n                uint256 collaboratorReward;\r\n                uint256 FinalEthforCollaborator;\r\n                uint256 ethforCollaboratorBeforeCalculatingForPercentage;\r\n\r\n                collaborators = COLLABORATORS[i];\r\n                collaboratorReward = collaboratorRewards[collaborators];\r\n\r\n                ethforCollaboratorBeforeCalculatingForPercentage = collaboratorReward\r\n                    .mul(priceInEth);\r\n                FinalEthforCollaborator = ethforCollaboratorBeforeCalculatingForPercentage\r\n                    .div(100);\r\n\r\n                collaborators.transfer(FinalEthforCollaborator);\r\n                /** transfers the received eth to the artist  */\r\n            }\r\n        } \r\n        artist.transfer( address(this).balance);\r\n\r\n        /** logs updated ether balance of contract */\r\n        balances[address(this)] -= priceInEth;\r\n\r\n        /** gets art name/art alias from the Art Id which was inputted  */\r\n        _ArtAlias = getArtAliasByID(_ArtID);\r\n\r\n        /** updates mapping to show that art will be minted  */\r\n        _ArtMinted[_ArtAlias] = true;\r\n\r\n        /** mints Nft token with the art id to the function caller */\r\n        _mint(msg.sender, _ArtID);\r\n\r\n        /** updates mapping to show that uri is already with a token  */\r\n        _URI_Exists[_uri] = true;\r\n\r\n        /** set the uri to the token via the art id */\r\n        _setTokenURI(_ArtID, _uri);\r\n    }\r\n\r\n    /** add art function to allow the artist only add art names/ aliases to the ART array/list */\r\n\r\n    function addART(string memory _ArtAlias, string memory ipfshashnumber) public {\r\n        /** checks if the function caller is the artist  */\r\n        require(\r\n            msg.sender == artist,\r\n            \" only the NFT artist can add artwork names to this list\"\r\n        );\r\n\r\n        /** checks if the art name/alias added has not been addded before */\r\n        require(\r\n            !_ArtAdded[_ArtAlias] ,\r\n            \"this art has been added with an art name into this array list\"\r\n         \r\n        );\r\n        \r\n        /** checks if the ipfs hash has been added to the smart contract before */ \r\n\r\n        require(!ipfsAdded[ipfshashnumber], \"this art has been added with an art name into this array list\");\r\n\r\n        /** push art name into the array, totalNumberOfArtPresent updates the number of art present by counting the number of times an alias/name  push was sucessful  */\r\n        totalNumberOfArtPresent = ART.push(_ArtAlias);\r\n\r\n        /** uppates the mapping to show that art name/alias was added  */\r\n        _ArtAdded[_ArtAlias] = true;\r\n\r\n        /** pushes ipfs hash into array */\r\n        totalNumberOfFilesUploaded = ipfshash.push(ipfshashnumber);\r\n\r\n         /** uppates the mapping to show ipfs hash was added  */\r\n        ipfsAdded[ipfshashnumber] = true;\r\n\r\n\r\n    }\r\n\r\n    /** function to get art name/alias by ID */\r\n    function getArtAliasByID(uint256 __id) public view returns (string memory) {\r\n        uint256 ID;\r\n        string memory __ArtAlias;\r\n\r\n        /** ID is gotten by subtracting 1 from the __id each time the fucntion is called, computer reads from 0's upwards so im only optimizng for internal calculations to be compatible with computers */\r\n        ID = __id.sub(1);\r\n\r\n        /** art name/alias is gotten by using the ID to get the name/alias via an array call function */\r\n        __ArtAlias = ART[ID];\r\n        return __ArtAlias;\r\n    }\r\n\r\n    /** function to get collaborator by number i.e collaborator 1 will have an id of 1 */\r\n    function getCollaboratorByID(uint256 __id) public view returns (address) {\r\n        uint256 collaboratorID;\r\n        address collaboratorAddress;\r\n\r\n        /** ID is gotten by subtracting 1 from the __id each time the fucntion is called, computer reads from 0's upwards so im only optimizng for internal calculations to be compatible with computers */\r\n        collaboratorID = __id.sub(1);\r\n\r\n        /** art name/alias is gotten by using the ID to get the name/alias via an array call function */\r\n        collaboratorAddress = COLLABORATORS[collaboratorID];\r\n        return collaboratorAddress;\r\n    }\r\n\r\n    /** change art price function, can only be called by the artist. allows the artist to change art prices */\r\n    function ChangeArtPrice(uint256 _ArtPrice) public {\r\n        /** checks if function caller is thr ==e artist  */\r\n        require(\r\n            msg.sender == artist,\r\n            \"you cannot change the art price, you are not the artist\"\r\n        );\r\n\r\n        /**assign price in eth to art price*/\r\n        priceInEth = _ArtPrice;\r\n    }\r\n\r\n    function AddCollaboratorsAndTheirRewardPercentage(\r\n        address payable collaborating_Artist,\r\n        uint256 percentageReward\r\n    ) public {\r\n        /** checks if the function caller is the artist  */\r\n        require(\r\n            msg.sender == artist,\r\n            \" only the NFT artist can add to this list\"\r\n        );\r\n\r\n        /** checks if the collabortor address added has not been addded before */\r\n        require(\r\n            !collaboratorAdded[collaborating_Artist],\r\n            \"this collaborator has been added with an address into this array list\"\r\n        );\r\n\r\n        /** uppates the mapping to show that art collaborator was added  */\r\n        collaboratorAdded[collaborating_Artist] = true;\r\n\r\n        /** maps collaborating artist address to percentage reward for the collab artist  */\r\n        collaboratorRewards[collaborating_Artist] = percentageReward;\r\n\r\n        /** push collaborator address into the array, totalNumberOfCollaboratorsPresent updates the number of art present by counting the number of times an alias/name  push was sucessful  */\r\n        totalNumberOfCollaboratorsPresent = COLLABORATORS.push(\r\n            collaborating_Artist\r\n        );\r\n    }\r\n\r\n    /** function added just incase sharing formula needs to be changed  */\r\n    function updatePercentageRewardForCollaborators(\r\n        address collaborating_Artist,\r\n        uint256 percentageReward\r\n    ) public {\r\n        /** checks if the function caller is the artist  */\r\n        require(\r\n            msg.sender == artist,\r\n            \" only the NFT artist can add to this list\"\r\n        );\r\n\r\n        /** updates mapping of collaborating artist address to percentage reward for the collab artist  */\r\n        collaboratorRewards[collaborating_Artist] = percentageReward;\r\n    }\r\n}\r\n",
  "sourcePath": "C:/Users/HP/Desktop/the well smart contracts/smart-contracts/collab-nft/contracts/collab-nft.sol",
  "compiler": {
    "name": "solc",
    "version": "0.5.0+commit.1d4f565a.Emscripten.clang"
  },
  "schemaVersion": "3.3.4",
  "updatedAt": "2021-02-25T13:49:57.111Z",
  "devdoc": {
    "methods": {
      "approve(address,uint256)": {
        "details": "Approves another address to transfer the given token ID The zero address indicates there is no approved address. There can only be one approved address per token at a given time. Can only be called by the token owner or an approved operator.",
        "params": {
          "to": "address to be approved for the given token ID",
          "tokenId": "uint256 ID of the token to be approved"
        }
      },
      "balanceOf(address)": {
        "details": "Gets the balance of the specified address.",
        "params": {
          "owner": "address to query the balance of"
        },
        "return": "uint256 representing the amount owned by the passed address"
      },
      "getApproved(uint256)": {
        "details": "Gets the approved address for a token ID, or zero if no address set Reverts if the token ID does not exist.",
        "params": {
          "tokenId": "uint256 ID of the token to query the approval of"
        },
        "return": "address currently approved for the given token ID"
      },
      "isApprovedForAll(address,address)": {
        "details": "Tells whether an operator is approved by a given owner.",
        "params": {
          "operator": "operator address which you want to query the approval of",
          "owner": "owner address which you want to query the approval of"
        },
        "return": "bool whether the given operator is approved by the given owner"
      },
      "ownerOf(uint256)": {
        "details": "Gets the owner of the specified token ID.",
        "params": {
          "tokenId": "uint256 ID of the token to query the owner of"
        },
        "return": "address currently marked as the owner of the given token ID"
      },
      "safeTransferFrom(address,address,uint256)": {
        "details": "Safely transfers the ownership of a given token ID to another address If the target address is a contract, it must implement `onERC721Received`, which is called upon a safe transfer, and return the magic value `bytes4(keccak256(\"onERC721Received(address,address,uint256,bytes)\"))`; otherwise, the transfer is reverted. Requires the msg.sender to be the owner, approved, or operator",
        "params": {
          "from": "current owner of the token",
          "to": "address to receive the ownership of the given token ID",
          "tokenId": "uint256 ID of the token to be transferred"
        }
      },
      "safeTransferFrom(address,address,uint256,bytes)": {
        "details": "Safely transfers the ownership of a given token ID to another address If the target address is a contract, it must implement `onERC721Received`, which is called upon a safe transfer, and return the magic value `bytes4(keccak256(\"onERC721Received(address,address,uint256,bytes)\"))`; otherwise, the transfer is reverted. Requires the msg.sender to be the owner, approved, or operator",
        "params": {
          "_data": "bytes data to send along with a safe transfer check",
          "from": "current owner of the token",
          "to": "address to receive the ownership of the given token ID",
          "tokenId": "uint256 ID of the token to be transferred"
        }
      },
      "setApprovalForAll(address,bool)": {
        "details": "Sets or unsets the approval of a given operator An operator is allowed to transfer all tokens of the sender on their behalf.",
        "params": {
          "approved": "representing the status of the approval to be set",
          "to": "operator address to set the approval"
        }
      },
      "supportsInterface(bytes4)": {
        "details": "See `IERC165.supportsInterface`.     * Time complexity O(1), guaranteed to always use less than 30 000 gas."
      },
      "tokenByIndex(uint256)": {
        "details": "Gets the token ID at a given index of all the tokens in this contract Reverts if the index is greater or equal to the total number of tokens.",
        "params": {
          "index": "uint256 representing the index to be accessed of the tokens list"
        },
        "return": "uint256 token ID at the given index of the tokens list"
      },
      "tokenOfOwnerByIndex(address,uint256)": {
        "details": "Gets the token ID at a given index of the tokens list of the requested owner.",
        "params": {
          "index": "uint256 representing the index to be accessed of the requested tokens list",
          "owner": "address owning the tokens list to be accessed"
        },
        "return": "uint256 token ID at the given index of the tokens list owned by the requested address"
      },
      "tokenURI(uint256)": {
        "details": "Returns an URI for a given token ID. Throws if the token ID does not exist. May return an empty string.",
        "params": {
          "tokenId": "uint256 ID of the token to query"
        }
      },
      "totalSupply()": {
        "details": "Gets the total amount of tokens stored by the contract.",
        "return": "uint256 representing the total amount of tokens"
      },
      "transferFrom(address,address,uint256)": {
        "details": "Transfers the ownership of a given token ID to another address. Usage of this method is discouraged, use `safeTransferFrom` whenever possible. Requires the msg.sender to be the owner, approved, or operator.",
        "params": {
          "from": "current owner of the token",
          "to": "address to receive the ownership of the given token ID",
          "tokenId": "uint256 ID of the token to be transferred"
        }
      }
    }
  },
  "userdoc": {
    "methods": {
      "ChangeArtPrice(uint256)": {
        "notice": "change art price function, can only be called by the artist. allows the artist to change art prices "
      },
      "ReceiveEthAndMint(uint256,string,uint256)": {
        "notice": "Receive eth and mint token function. function collects the art ID, which becomes the token ID, the token URI and token price in eth "
      },
      "addART(string,string)": {
        "notice": "add art function to allow the artist only add art names/ aliases to the ART array/list "
      },
      "constructor": "'contrustor contains arguments that must be provided before smart contract is deployed'",
      "getArtAliasByID(uint256)": {
        "notice": "function to get art name/alias by ID "
      },
      "getCollaboratorByID(uint256)": {
        "notice": "function to get collaborator by number i.e collaborator 1 will have an id of 1 "
      },
      "updatePercentageRewardForCollaborators(address,uint256)": {
        "notice": "function added just incase sharing formula needs to be changed  "
      }
    }
  }
}